:020000040000FA
:100000000C94D5000C94FD000C94FD000C94FD00A4
:100010000C94FD000C94FD000C94FD000C94FD006C
:100020000C94FD000C94FD000C94FD000C94FD005C
:100030000C94FD000C94FD000C94FD000C94FD004C
:100040000C942F050C94FD000C94FD040C94D70423
:100050000C94FD000C94FD000C94FD000C94FD002C
:100060000C94FD000C94FD0000000000240027000B
:100070002A0000000000250028002B0000010001DC
:100080000001000100010001000100010001000168
:100090000001000100010001000100010001000158
:1000A0000001000100010001000100010001000148
:1000B000000100010001000100010001FF00FF003C
:1000C000FF00FF00FF00FF00FF00FF00FF00FF0038
:1000D000FF00FF00FF00FF00FF00FF00FF00FF0028
:1000E000FF00FF00FF00FF00FF00FF00FF00FF0018
:1000F000FF00FF00FF00FF00FF00FF000000000006
:100100002300260029000404040404040404020259
:100110000202020203030303030301020408102086
:100120004080010204081020010204081020000091
:1001300000080002010000030407000000000000A6
:10014000000076657200302E342E3000682D626516
:10015000617400313000627566662D696E0032355B
:1001600036006465760041726475696E6F20556E65
:100170006F006370750041546D65676133323850AC
:1001800000636F6E0053747265616D006275696C17
:1001900064004F63742020322032303230203137F7
:1001A0003A33313A33310000790511241FBECFEFC5
:1001B000D8E0DEBFCDBF11E0A0E0B1E0E4E7F8E1B8
:1001C00002C005900D92AE34B107D9F722E0AEE43B
:1001D000B1E001C01D92A731B207E1F710E0C5ED13
:1001E000D0E004C02197FE010E94110CC43DD1074C
:1001F000C9F70E94CA050C94380C0C9400000895AD
:100200000895AF92BF92CF92DF92EF92FF920F9339
:100210001F93CF93DF936C017B018B01040F151F9C
:10022000EB015E01AE18BF08C017D10759F0699104
:10023000D601ED91FC910190F081E02DC601099568
:10024000892B79F7C501DF91CF911F910F91FF9015
:10025000EF90DF90CF90BF90AF900895FC01538D49
:10026000448D252F30E0842F90E0821B930B541790
:1002700010F0CF96089501970895FC01918D828D1D
:10028000981761F0A28DAE0FBF2FB11D5D968C91B6
:10029000928D9F5F9F73928F90E008958FEF9FEFF5
:1002A0000895FC01918D828D981731F0828DE80FB1
:1002B000F11D858D90E008958FEF9FEF0895FC016B
:1002C000918D228D892F90E0805C9F4F821B910938
:1002D0008F739927089589E591E00E945F0121E0DD
:1002E000892B09F420E0822F089580E090E0892B8B
:1002F00029F00E946B0181110C9400000895FC010B
:10030000A48DA80FB92FB11DA35ABF4F2C91848D76
:1003100090E001968F739927848FA689B7892C93D3
:10032000A089B1898C91837080648C93938D848D26
:10033000981306C00288F389E02D80818F7D808329
:100340000895EF92FF920F931F93CF93DF93EC01E9
:1003500081E0888F9B8D8C8D98131AC0E889F9896C
:10036000808185FF15C09FB7F894EE89FF8960836F
:10037000E889F98980818370806480839FBF81E0F0
:1003800090E0DF91CF911F910F91FF90EF90089532
:10039000F62E0B8D10E00F5F1F4F0F731127E02E0D
:1003A0008C8D8E110CC00FB607FCFACFE889F98945
:1003B000808185FFF5CFCE010E947F01F1CFEB8DCB
:1003C000EC0FFD2FF11DE35AFF4FF0829FB7F89419
:1003D0000B8FEA89FB8980818062CFCFCF93DF9337
:1003E000EC01888D8823B9F0AA89BB89E889F9894D
:1003F0008C9185FD03C0808186FD0DC00FB607FC82
:10040000F7CF8C9185FFF2CF808185FFEDCFCE01B4
:100410000E947F01E9CFDF91CF910895833081F071
:1004200028F4813099F08230A9F008958730A9F03E
:100430008830C9F08430B1F4809180008F7D03C092
:10044000809180008F7780938000089584B58F77A6
:1004500084BD089584B58F7DFBCF8091B0008F77E8
:100460008093B00008958091B0008F7DF9CF1F93E5
:10047000CF93DF93282F30E0F901E25DFE4F8491A6
:10048000F901E65EFE4FD491F901EA5FFE4FC49197
:10049000CC23A9F0162F81110E940E02EC2FF0E060
:1004A000EE0FFF1FEE58FF4FA591B4918FB7F89450
:1004B000EC91111108C0D095DE23DC938FBFDF9142
:1004C000CF911F910895DE2BF8CFCF93DF9390E06B
:1004D000FC01E65EFE4F24918A5F9E4FFC018491F1
:1004E0008823C9F090E0880F991FFC01E859FF4F5D
:1004F000A591B491FC01EE58FF4FC591D4916111C3
:100500000DC09FB7F8948C91209582238C9388819D
:10051000282328839FBFDF91CF910895623051F443
:100520009FB7F8943C91822F809583238C93E88128
:100530002E2BEFCF8FB7F894EC912E2B2C938FBFEF
:10054000EACF3FB7F8948091530190915401A09164
:100550005501B091560126B5A89B05C02F3F19F053
:100560000196A11DB11D3FBFBA2FA92F982F882733
:10057000BC01CD01620F711D811D911D42E0660F0E
:10058000771F881F991F4A95D1F708950C94A102EF
:100590002FB7F89460914F017091500180915101F3
:1005A000909152012FBF08958F929F92AF92BF9268
:1005B000CF92DF92EF92FF920F931F93CF93DF932F
:1005C0006C017B018B01040F151F0E94C8024B01B7
:1005D0005C01E701C017D107C8F40E94C80268197E
:1005E00079098A099B09603D77408105910570F47E
:1005F000D6018D919C91DC01ED91FC910284F385F3
:10060000E02D099597FDE6CF8993E4CFCE018E19B1
:100610009F09DF91CF911F910F91FF90EF90DF9095
:10062000CF90BF90AF909F908F900895CF93DF931E
:10063000EC0188819981DC01ED91FC910680F781C4
:10064000E02D099581E08A83DF91CF910895AF92E3
:10065000BF92CF92DF92EF92FF920F931F93CF93AF
:10066000DF9300D000D01F92CDB7DEB7F82E5A012D
:10067000890161157105B1F460910C0270910D0250
:100680006115710579F48091570190915801019697
:1006900009F443C09093580180935701609157012A
:1006A00070915801E091F601F091F7018281882361
:1006B00009F4A5C0FF2009F4B2C08F2D8B7F8230D2
:1006C00039F080910E0290910F02019709F097C0C6
:1006D000A114B10409F0A7C080819181DC01ED91E2
:1006E000FC910280F381E02DF98276276727762737
:1006F0007B836A83302F212F3D832C8345E050E09C
:10070000BE016F5F7F4F09950E94C602011511055A
:1007100029F1A5E0CA2ED12CABC081E090E0BACF80
:1007200005E010E0B8C080819181DC01ED91FC9181
:100730000280F381E02D19827627672776277B8355
:100740006A831027012710271D830C8345E050E0A2
:10075000BE016F5F7F4F09950E94C6020E94C802CA
:100760008B019C018091080290910902A0910A02DC
:10077000B0910B02AC01BD01E5E076956795579508
:100780004795EA95D1F7841B950BA60BB70B4091C3
:10079000000250910102609102027091030268010F
:1007A0007901C41AD50AE60AF70AB701A601F5E0ED
:1007B0007695679557954795FA95D1F74115510567
:1007C0006105710519F44FEF5FEFBA01840F951FB2
:1007D000A61FB71F8093080290930902A0930A02F4
:1007E000B0930B02009300021093010220930202C7
:1007F00030930302C297A105B10508F450C00F90D1
:100800000F900F900F900F90DF91CF911F910F914C
:10081000FF90EF90DF90CF90BF90AF900895A1141C
:10082000B10409F480CF680185E0C80ED11CF982BB
:100830007627672776277B836A83902F812F9D8376
:100840008C8380819181DC01ED91FC910280F381A8
:10085000E02D45E050E0BE016F5F7F4F09950E949B
:10086000C602FF2009F45CCF0115110509F458CF29
:10087000E091F601F091F70180819181DC01ED9129
:10088000FC910280F381E02DA801B50109950B5F71
:100890001F4F0E94C602C016D10609F45FCFE09137
:1008A000F601F091F701128210920F0210920E02DF
:1008B000A6CFCF93DF93CDB7DEB7C556D1090FB61C
:1008C000F894DEBF0FBECDBF45E650E062E471E0B4
:1008D000CE0101960E94CB0B25E630E0AE014F5FC2
:1008E0005F4F70E060E081E10E942703CB59DF4F4A
:1008F0000FB6F894DEBF0FBECDBFDF91CF91089544
:10090000DC01ED91FC91119701900020E9F7ED9346
:10091000FC9308950F931F93CF93DF93EC01FB019A
:1009200001900020E9F78F01061B170B8A819B813C
:10093000A801480F591F2C813D812417350768F005
:1009400028813981A801820F931F0E94170C4A81C8
:100950005B81400F511F5B834A83DF91CF911F91D1
:100960000F9108950F931F93CF93DF93CDB7DEB709
:1009700062970FB6F894DEBF0FBECDBF8C01CB01DE
:100980004AE0BE016F5F7F4F0E94D40BBE016F5FD4
:100990007F4FC8010E948A0462960FB6F894DEBFAA
:1009A0000FBECDBFDF91CF911F910F9108951F9280
:1009B0000F920FB60F9211242F933F934F935F9393
:1009C0006F937F938F939F93AF93BF93EF93FF9317
:1009D00089E591E00E947F01FF91EF91BF91AF9176
:1009E0009F918F917F916F915F914F913F912F9147
:1009F0000F900FBE0F901F9018951F920F920FB679
:100A00000F9211242F938F939F93EF93FF93E09175
:100A10006901F0916A018081E0916F01F0917001AC
:100A200082FD1BC09081809172018F5F8F73209136
:100A30007301821741F0E0917201F0E0E75AFE4F36
:100A4000958F80937201FF91EF919F918F912F91DC
:100A50000F900FBE0F901F9018958081F4CF1F92BA
:100A60000F920FB60F9211242F933F938F939F9362
:100A7000AF93BF9380914F0190915001A09151018C
:100A8000B091520130914E0123E0230F2D3758F5DC
:100A90000196A11DB11D20934E0180934F019093AB
:100AA0005001A0935101B093520180915301909154
:100AB0005401A0915501B09156010196A11DB11D9F
:100AC0008093530190935401A0935501B093560124
:100AD000BF91AF919F918F913F912F910F900FBE3A
:100AE0000F901F90189526E8230F0296A11DB11DA7
:100AF000D2CFE9E5F1E01382128288EE93E0A0E024
:100B0000B0E084839583A683B7838BE291E09183E1
:100B1000808385EC90E09587848784EC90E09787CC
:100B2000868780EC90E0918B808B81EC90E0938BBA
:100B3000828B82EC90E0958B848B86EC90E0978B97
:100B4000868B118E128E138E148EA0E1B2E0119658
:100B50001C921E9212961C921297E6EFF1E0B1835E
:100B6000A083138212821582148216821782108645
:100B70001186128613861486158616861786108AA5
:100B8000118A128A138A148A158A178A168A118E74
:100B9000108E0895CF93DF93CDB7DEB76D970FB664
:100BA000F894DEBF0FBECDBF789484B5826084BD5B
:100BB00084B5816084BD85B5826085BD85B5816061
:100BC00085BD80916E00816080936E0010928100DF
:100BD000809181008260809381008091810081609A
:100BE000809381008091800081608093800080915B
:100BF000B10084608093B1008091B00081608093E7
:100C0000B00080917A00846080937A0080917A00AD
:100C1000826080937A0080917A00816080937A006C
:100C200080917A00806880937A001092C10061E020
:100C300088E00E94650261E089E00E94650261E04F
:100C40008AE00E946502E0916901F0916A0182E008
:100C50008083E0916501F09166011082E091670167
:100C6000F09168018FEC808310927101E0916D0129
:100C7000F0916E0186E08083E0916B01F0916C0150
:100C8000808180618083E0916B01F0916C018081B3
:100C900088608083E0916B01F0916C0180818068B5
:100CA0008083E0916B01F0916C0180818F7D808366
:100CB00080E091E09093F9018093F801E091F601D2
:100CC000F091F70189E591E0918380839E012F5F88
:100CD0003F4F590140E1642E712C80910E0290919A
:100CE0000F02029709F48AC0E091F601F091F70132
:100CF0004280442009F45FC080819181DC01ED9144
:100D0000FC910084F185E02D0995181619060CF068
:100D100052C045E050E0BE01695E7F4F8091F60110
:100D20009091F7010E94D402009709F444C00597FE
:100D300009F05FC0888D998D982789279827998F0A
:100D4000888F0A8D1B8D1027012710271B8F0A8F74
:100D5000892B09F44EC08F8981115DC00E94C802A1
:100D60006093FC017093FD018093FE019093FF015D
:100D700020910E0230910F024A8D5B8D232BB1F52D
:100D8000288D398D2130310589F54430510519F010
:100D9000483C510571F560930402709305028093FD
:100DA00006029093070281E090E090930F028093F7
:100DB0000E020E9459040E94C8026B017C018091BE
:100DC0000E0290910F028130910509F01FC341106E
:100DD000C2C210920F0210920E02C0920402D09270
:100DE0000502E0920602F092070208C04530510564
:100DF00011F7E091F601F091F701128240E050E026
:100E0000452B09F46ACF0E946B01882309F465CF52
:100E10000E94000062CF8091F6019091F7010130AD
:100E2000B1E01B0718F00E941603C5CFCDB6DEB6A1
:100E300098012F5F3F4FEDB7FEB7E21BF30B0FB6E4
:100E4000F894FEBF0FBEEDBF2DB73EB72F5F3F4FEB
:100E50007901A801B9010E94D4028017910709F015
:100E6000A7C0EA8DFB8DEE0DFF1D10820E94C80207
:100E70006093FC017093FD018093FE019093FF014C
:100E80008F898F30B1F068F4823009F459C0863010
:100E900009F46DC08091F6019091F7010E9416034C
:100EA00060C0893209F46DC0873309F45AC08431B7
:100EB00089F7888D998D90930D0280930C022A8C6E
:100EC0003B8CFD8EEC8E4701820C931CE814F904D8
:100ED00008F0CDC1D7010D911C91CE014C960E9416
:100EE0008004FC01808191818815990508F0BFC1BB
:100EF0008C8D9D8DDC012C91213409F089C00196E7
:100F00000E94AD0B3EE0532E580E06970CF483C0A2
:100F1000063752E7150709F4AAC108F0E8C20136FE
:100F200092E7190709F4CEC20436A2E71A0709F4BA
:100F3000EAC000371D4609F004C255245A947FC008
:100F400081E090E090930F0280930E02688D798D7E
:100F500028EC30E050E040E080E00E9427030E944F
:100F600059040FB6F894DEBE0FBECDBE24CF688DF7
:100F7000798D28EC30E050E040E080E00E942703CB
:100F8000F0CF8091FA019091FB01892B41F480E22E
:100F900090E00E94880A9093FB018093FA018A8D69
:100FA0009B8DFA82E9828E0D9F1DE816F90630F0BE
:100FB0000FB6F894DEBE0FBECDBE1BCF40E250E0B0
:100FC000B7018091FA019091FB010E94290CC501A3
:100FD0000E948004E091F601F091F7011282809165
:100FE000FC019091FD01A091FE01B091FF01885894
:100FF0009341A109B1098093040290930502A09343
:101000000602B093070210920F0210920E02A9CFAF
:101010000E94AD0B582E0637B2E71B0709F44BC1EF
:10102000C8F50136F2E71F0709F4D0C0043622E7FD
:10103000120709F46AC000371D4609F082C18C8D81
:101040009D8D8815990508F012C1CE014C960E941D
:101050008004EC8CFD8C69E371E0C7010E94200CD8
:1010600060E0892B79F06CE371E0C7010E94200CED
:10107000892B39F060E471E0C7010E94200C892BB4
:10108000C9F561E0852D0E946502CE014C960E9453
:101090008004D5CF043647E7140709F47CC006372F
:1010A00057E7150709F420C10136174709F049C170
:1010B000CE014C960E948004DC018D919C91881594
:1010C000990508F0D4C061E0852D0E9465028C8DE1
:1010D0009D8D0E94AD0B8C0161E0852D0E94650203
:1010E0000115110509F46DC00F3F110509F09AC0F3
:1010F00061E068C064E471E0C7010E94200C892BA4
:1011000021F662E0BFCF55245A94BA8AA98A1C8A74
:101110001B8A7E8A6D8A67E471E0CE0141960E9447
:101120008A04052D10E0B801CE0141960E94B20458
:10113000F801E25DFE4F8491F801E65EFE4FF49007
:101140000A5F1E4FF801049160E070E0002389F00F
:1011500081110E940E02E02FF0E0EE0FFF1FE4501D
:10116000FF4FA591B491EC91FE2261E070E009F48B
:1011700060E0CE0141960E94B2042B893C89215047
:10118000310949895A8970E060E084E10E942703AF
:101190006EC055245A94CE014C960E948004DC0106
:1011A0008D919C918815990508F061C061E0852DAD
:1011B0000E9465028C8D9D8D0E94AD0B61E0892B94
:1011C00009F460E0852D0E94370251C0BA8AA98ACD
:1011D0001C8A1B8A7E8A6D8A6AE471E0CE01419680
:1011E0000E948A04652D70E0CE0141960E94B204EF
:1011F000BDE0B51510F4E2EF5E0E052D077000643A
:1012000000937C0080917A00806480937A008091C2
:101210007A0086FDFCCF8091780060917900762F6E
:10122000682FA7CFE52DF0E0E25DFE4FE491E330BB
:1012300041F148F4E130B9F0E230F1F00038110545
:101240000CF056CFBECFE73031F1E83061F1E43039
:10125000A9F78091800080628093800010938B00BA
:1012600000938A0004C084B5806884BD07BD1092D5
:101270000D0210920C0275CE84B5806284BD08BD4B
:10128000F6CF809180008068809380001093890061
:1012900000938800ECCF8091B00080688093B0000C
:1012A0000093B300E4CF8091B00080628093B000DF
:1012B0000093B400DCCF5982BFE1B515C0F2E52D33
:1012C000F0E0EE0FFF1FE454FF4F259134912115FC
:1012D000310569F2E0E02F3F3E0749F2C501F9010F
:1012E0000995C5CF55245A94CE014C960E9480048E
:1012F0008C8D9D8D9C012E193F09221A330A9A83E9
:1013000089833C822B823E822D82598AFFE1F5152A
:1013100008F4ADCFE52DF0E0EE0FFF1FE458FF4FCE
:10132000259134912115310509F4A1CF41E02030F8
:10133000340709F49CCFB501CE014196F901099516
:1013400096CF60910C0270910D0222E030E050E0E7
:1013500040E080E01BCF8091FC019091FD01A091C5
:10136000FE01B091FF01A7019601281B390B4A0B22
:101370005B0BDA01C90181383EE39307A105B10592
:1013800050F0E091F601F091F701128210920F02F5
:1013900010920E0233CD81319742A105B105B0F410
:1013A0008091000290910102A0910202B09103028B
:1013B000A7019601281B390B4A0B5B0BDA01C90107
:1013C00081319742A105B10508F418CD809104023E
:1013D00090910502A0910602B0910702A701960123
:1013E000281B390B4A0B5B0BDA01C901813D974081
:1013F000A105B10508F402CD30E020E050E040E066
:1014000070E060E086E00E942703E7CC892B09F0BA
:10141000F5CC8091040290910502A0910602B09152
:101420000702A7019601281B390B4A0B5B0BDA0157
:10143000C901442039F0813D9740A105B10508F468
:10144000DDCC9FCF89389341A105B10508F4D6CCF6
:101450008091F6019091F701DC0112961C920E9496
:101460001603882309F4B9CC28EE33E040E050E0BD
:10147000209308023093090240930A0250930B0212
:101480004091F8015091F901FA0101900020E9F72B
:1014900031979F01241B350B61E070E082E00E94D0
:1014A00027038091000290910102A0910202B09165
:1014B00003028093040290930502A0930602B09366
:1014C00007029CCCBA8AA98A1C8A1B8A7E8A6D8AEA
:1014D0006AE471E0CE0141960E948A046FEF70E0E9
:1014E000CE0141960E94B20455245A9484CE04360B
:1014F000E7E71E0709F44DCE0637F7E71F0709F4A3
:10150000F1CE0136174709F01CCF55245A94D0CD9F
:101510000F931F93CF93DF938230910510F482E0F5
:1015200090E0E0911502F091160230E020E0B0E08A
:10153000A0E0309799F42115310509F44AC0281B21
:10154000390B24303105D8F58A819B8161157105ED
:1015500089F1FB0193838283FE0111C04081518197
:101560000281138148175907E0F04817590799F489
:10157000109761F012960C93129713961C93329663
:10158000CF01DF91CF911F910F9108950093150224
:1015900010931602F4CF2115310551F0421753076D
:1015A00038F0A901DB019A01BD01DF01F801C1CFCB
:1015B000EF01F9CF9093160280931502CDCFFE0173
:1015C000E20FF31F819391932250310939832883CD
:1015D000D7CF2091130230911402232B41F4209194
:1015E000230130912401309314022093130220919F
:1015F0002101309122012115310541F42DB73EB76B
:101600004091250150912601241B350BE0911302D6
:10161000F0911402E217F307A0F42E1B3F0B2817DA
:10162000390778F0AC014E5F5F4F2417350748F05B
:101630004E0F5F1F509314024093130281939193B6
:101640009FCFF0E0E0E09CCFCF93DF930097E9F0ED
:10165000FC01329713821282A0911502B0911602FA
:10166000ED0130E020E01097A1F420813181820F5C
:10167000931F20911302309114022817390709F0A3
:1016800061C0F0931402E0931302DF91CF910895AB
:10169000EA01CE17DF07E8F54A815B819E0141151B
:1016A0005105B1F7E901FB83EA8349915991C40FD0
:1016B000D51FEC17FD0761F4808191810296840F9C
:1016C000951FE90199838883828193819B838A8313
:1016D000F0E0E0E012968D919C9113970097B9F598
:1016E0002D913C911197CD010296820F931F20916D
:1016F0001302309114022817390739F6309751F543
:101700001092160210921502B0931402A0931302C5
:10171000BCCFD383C28340815181840F951FC817EA
:10172000D90761F44E5F5F4F88819981480F591F37
:10173000518340838A819B81938382832115310564
:1017400009F0B0CFF0931602E09315029ECFFD0191
:10175000DC01C0CF13821282D7CFFC0188279927E2
:10176000E89421912032E9F3293010F02E30C8F3AB
:101770002B3241F02D3239F4689404C00E94DF0B03
:10178000820F911D219120532A30C0F31EF49095B1
:1017900081959F4F0895FB01DC0102C005900D92D9
:1017A00041505040D8F70895BB274A3031F499236F
:1017B00022F4BDE2909581959F4F0C94E80B7AE05E
:1017C000979F902D879F802D910D11240895BB2701
:1017D000FB015527AA27880F991FAA1FA41710F0ED
:1017E000A41B83955051B9F7A05DAA3308F0A95DF9
:1017F000A193009779F7B111B1931192CB010C9499
:10180000010CDC01FC01672F71917723E1F732971E
:1018100004C07C916D9370836291AE17BF07C8F3CB
:101820000895EE0FFF1F0590F491E02D0994FB0140
:10183000DC0102C001900D9241505040D8F708954C
:10184000FB01DC018D91019080190110D9F3990BF6
:101850000895FB01DC014150504048F001900D9289
:101860000020C9F701C01D9241505040E0F7089593
:10187000F894FFCF6B366F65734D392D367546740E
:101880004661694A444A4B327A504B73486B49442B
:10189000456864760000001702800000000000A187
:1018A0000101012E01EE015F013D015101696E0050
:1018B0006F75740070776D007075006477006177E4
:0218C000000026
:107E0000112484B714BE81FFF0D085E080938100F7
:107E100082E08093C00088E18093C10086E0809377
:107E2000C20080E18093C4008EE0C9D0259A86E02C
:107E300020E33CEF91E0309385002093840096BBD3
:107E4000B09BFECF1D9AA8958150A9F7CC24DD24C4
:107E500088248394B5E0AB2EA1E19A2EF3E0BF2EE7
:107E6000A2D0813461F49FD0082FAFD0023811F036
:107E7000013811F484E001C083E08DD089C08234E0
:107E800011F484E103C0853419F485E0A6D080C0E4
:107E9000853579F488D0E82EFF2485D0082F10E0AE
:107EA000102F00270E291F29000F111F8ED06801E7
:107EB0006FC0863521F484E090D080E0DECF843638
:107EC00009F040C070D06FD0082F6DD080E0C81688
:107ED00080E7D80618F4F601B7BEE895C0E0D1E017
:107EE00062D089930C17E1F7F0E0CF16F0E7DF06D8
:107EF00018F0F601B7BEE89568D007B600FCFDCFD4
:107F0000A601A0E0B1E02C9130E011968C91119780
:107F100090E0982F8827822B932B1296FA010C0160
:107F200087BEE89511244E5F5F4FF1E0A038BF0790
:107F300051F7F601A7BEE89507B600FCFDCF97BE46
:107F4000E89526C08437B1F42ED02DD0F82E2BD052
:107F50003CD0F601EF2C8F010F5F1F4F84911BD097
:107F6000EA94F801C1F70894C11CD11CFA94CF0C13
:107F7000D11C0EC0853739F428D08EE10CD085E9AC
:107F80000AD08FE07ACF813511F488E018D01DD067
:107F900080E101D065CF982F8091C00085FFFCCF94
:107FA0009093C60008958091C00087FFFCCF809118
:107FB000C00084FD01C0A8958091C6000895E0E648
:107FC000F0E098E1908380830895EDDF803219F02E
:107FD00088E0F5DFFFCF84E1DECF1F93182FE3DFCA
:107FE0001150E9F7F2DF1F91089580E0E8DFEE27F6
:047FF000FF270994CA
:027FFE00040479
:00000001FF
